:020000040800F2
:10000000000C002089010008C904000889040008C8
:10001000C504000869030008430A00080000000046
:10002000000000000000000000000000E5070008DC
:100030006D03000800000000CB040008F908000868
:10004000A3010008A3010008A3010008A301000800
:10005000A3010008A3010008A3010008A3010008F0
:10006000A3010008A3010008A3010008A3010008E0
:10007000A3010008A3010008A3010008A3010008D0
:10008000A3010008A3010008A3010008A3010008C0
:10009000A3010008A3010008A3010008A3010008B0
:1000A000A3010008A3010008A3010008A3010008A0
:1000B000A3010008A3010008A3010008A301000890
:1000C000A3010008A3010008A3010008A301000880
:1000D000A30100085D090008A3010008A3010008AE
:1000E000A3010008A3010008A301000800F002F822
:1000F00000F03AF80AA090E8000C82448344AAF188
:100100000107DA4501D100F02FF8AFF2090EBAE885
:100110000F0013F0010F18BFFB1A43F0010318473B
:10012000B00D0000D00D0000103A24BF78C878C18F
:10013000FAD8520724BF30C830C144BF04680C60ED
:10014000704700000023002400250026103A28BF35
:1001500078C1FBD8520728BF30C148BF0B60704739
:100160001FB51FBD10B510BD00F0CEF81146FFF74A
:10017000F7FF00F067FE00F0ECF803B4FFF7F2FFC2
:1001800003BC00F014FE00000948804709480047FE
:10019000FEE7FEE7FEE7FEE7FEE7FEE7FEE7FEE737
:1001A000FEE7FEE704480549054A064B7047000094
:1001B000FD080008ED00000800060020000C0020EB
:1001C0000008002000080020704740EA01030246B2
:1001D00030B59B0710D14FF0013400E008C208C9C8
:1001E0001D1B9D4315EAC41FF8D013F0FF0102F850
:1001F000011B0DD01B0AF8E711F8013B002B02F898
:10020000013B05D011F8013B002B02F8013BF3D173
:1002100030BD032A40F2308010F0030C00F015804E
:1002200011F8013BBCF1020F624498BF11F801CBF9
:1002300000F8013B38BF11F8013BA2F1040298BF5E
:1002400000F801CB38BF00F8013B11F0030300F0C8
:100250002980083AC0F0088051F8043B083A51F868
:1002600004CBA0E80810F5E7121D5CBF51F8043B71
:1002700040F8043BAFF30080D20724BF11F8013BE4
:1002800011F801CB48BF11F8012B24BF00F8013B46
:1002900000F801CB48BF00F8012B7047704770474A
:1002A0007047704710B5203AC0F00B80B1E8185085
:1002B000203AA0E81850B1E81850A0E81850BFF450
:1002C000F5AF5FEA027C24BFB1E81850A0E81850EF
:1002D00044BF18C918C0BDE810405FEA827C24BF43
:1002E00051F8043B40F8043B08BF7047D20728BFD1
:1002F00031F8023B48BF11F8012B28BF20F8023B20
:1003000048BF00F8012B7047754600F029F8AE464B
:1003100005006946534620F00700854618B020B511
:10032000FFF740FFBDE820404FF000064FF0000708
:100330004FF000084FF0000B21F00701AC46ACE88D
:10034000C009ACE8C009ACE8C009ACE8C0098D46FA
:1003500070470446AFF300802046FFF70EFF000011
:1003600000487047A005002000BFFEE770472DE958
:10037000F04102460025002600200023002400272B
:1003800091F803C00CF00F0591F803C00CF0100CAD
:10039000BCF1000F03D091F802C04CEA050591F8BA
:1003A00000C0BCF1000F31D0146800202BE04FF0EA
:1003B000010C0CFA00F3B1F800C00CEA03069E42EF
:1003C00020D183004FF00F0C0CFA03F7BC4305FA61
:1003D00003FC4CEA040491F803C0BCF1280F06D1D9
:1003E0004FF0010C0CFA00FCC2F814C00AE091F8BE
:1003F00003C0BCF1480F05D14FF0010C0CFA00FC12
:10040000C2F810C0401C0828D1D31460B1F800C055
:10041000BCF1FF0F34DD546800202EE000F1080C21
:100420004FF0010808FA0CF3B1F800C00CEA03061B
:100430009E4221D183004FF00F0C0CFA03F7BC430E
:1004400005FA03FC4CEA040491F803C0BCF1280F40
:1004500005D100F1080C08FA0CF8C2F8148091F8E4
:1004600003C0BCF1480F07D100F1080C4FF00108A0
:1004700008FA0CF8C2F81080401C0828CED354604B
:10048000BDE8F0810161704700BFFEE708B50121BA
:10049000502000F01BF84FF40050ADF80000102081
:1004A0008DF8030003208DF8020069460448FFF729
:1004B0005EFF4FF400510248FFF7E4FF08BD000063
:1004C0000010014000BFFEE77047704729B1064A9F
:1004D00092690243044B9A6104E0034A92698243A1
:1004E000014B9A6170470000001002402DE9F04175
:1004F00004460D46164600BF0D48007808B900F0C6
:10050000A3FA00BFEFF311800746202080F3118883
:1005100000BF00BF32462946204600F00BF8804657
:10052000F8B280F3118800BF00BF4046BDE8F081FB
:10053000E80000202DE9F047074688461646C246E7
:1005400007EB47011B4800EBC109D9F8140020B1A3
:10055000012811D0022826D11EE0484600F0ACFA4E
:100560000546B54201D2002405E0344632465146E4
:10057000484600F0F6FB18E0484600F09DFA0546B4
:10058000B54201D2284600E0304604462246514694
:10059000484600F0E6FB08E032465146484600F087
:1005A000A7FB044601E0002400BF00BF2046BDE8D1
:1005B000F0870000000100200FB438B5044606A8FB
:1005C00000906A462046059900F007F8054600208D
:1005D0000090284638BC5DF814FB2DE9F04F99B027
:1005E00082460D46144603A8149040201590002022
:1005F0001690CDF860A0179000BF2E786D1C06B93C
:10060000DDE0252E79D100274FF0010900BF2E78BB
:10061000232E12D02B2E0CD02D2E02D0302E10D106
:1006200003E047F001076D1C0EE047F002076D1C68
:100630000AE047F004076D1C06E047F008076D1C50
:1006400002E04FF0000900BF00BFB9F1000FDED19A
:100650004FF0000800BF2E78302E01DB392E00DD70
:1006600007E06D1CA6F1300008EB880100EB4108A3
:10067000F1E700BF002013902E782E2E12D16D1CB2
:1006800000BF2E78302E01DB392E00DD09E06D1C15
:10069000A6F13000139901EB810100EB41001390AA
:1006A000EFE700BF2E7800BF6C2E01D0682E02D17C
:1006B0006D1C2E7800E000E0F6E700BF702E5DD0E4
:1006C00008DC252E6AD0582E35D0632E09D0642E32
:1006D00069D113E0732E3CD0752E1DD0782E62D1D7
:1006E00028E02168081D2060D1F8009009F0FF0B78
:1006F000594614A800F0DAFA56E058E02168081DBF
:100700002060D1F80090CDE900870A22494614A85C
:10071000139B00F0DFF947E02168081D2060D1F845
:100720000090CDE900870A22494614A8139B00F0E7
:1007300047FA39E000BF2168081D2060D1F8009019
:10074000CDE900871022494614A8139B00F038FA1F
:100750002AE02168081D2060D1F800B000BF9BF896
:1007600000600BF1010B06B906E0314614A800F059
:100770009DFA17980028F2DA00BF15E02168081DDD
:100780002060D1F80090002008210B461022CDE90E
:100790000010494614A800F013FA05E0252114A81A
:1007A00000F084FA00E000BF00BF6D1C03E031469A
:1007B00014A800F07BFA17980028BFF61EAF00BF00
:1007C000179800280ADD169820B103A95046169AFA
:1007D000FFF78CFEDDE9161008441790179819B042
:1007E000BDE8F08F704710B500F002F810BD0000B2
:1007F0000CB50020019000903348006840F4803030
:100800003149086000BF3048006800F400300090B3
:100810000198401C0190009818B90198B0F5A06F9C
:10082000F1D12948006800F4003010B10120009097
:1008300001E0002000900098012843D1234800687F
:1008400040F01000214908600846006820F00300CD
:1008500008600846006840F0020008601A484068D6
:10086000194948600846406848600846406840F4B6
:10087000806048600846406820F47C104860084664
:10088000406840F4E81048600846006840F0807016
:10089000086000BF0C48006800F000700028F9D024
:1008A0000948406820F0030007494860084640684E
:1008B00040F00200486000BF0348406800F00C00B0
:1008C0000828F9D10CBD00000010024000200240B1
:1008D000042808D14FF0E021096941F004014FF0EC
:1008E000E022116107E04FF0E021096921F00401E5
:1008F0004FF0E022116170477047000010B51348B7
:10090000006840F00100114908600846406810493D
:1009100008400E494860084600680E4908400B49E7
:1009200008600846006820F4802008600846406897
:1009300020F4FE0048604FF41F008860FFF753FF6B
:100940004FF000600449086010BD00000010024034
:100950000000FFF8FFFFF6FE08ED00E010B540F2E2
:1009600025511D4800F03EF810B31B4800F064F814
:10097000C4B21A48008800F40040C8B9174800887B
:1009800000F4804060B10A2C03D000201349088095
:1009900020E01248008840F400401049088019E027
:1009A0000D2C06D10D48008840F480400B4908808A
:1009B00010E00A480088C0F30D0009490C540748AC
:1009C0000088401C0549088008460088C72801DDCA
:1009D0000020088010BD0000003801401C000020ED
:1009E0002000002070B502460024002300250020CE
:1009F00040F66A16B14200D100BFC1F3421501F0C2
:100A00001F03012606FA03F3012D02D19689334014
:100A100006E0022D02D1168A334001E0968A334067
:100A20000C12012606FA04F41688344013B10CB1F6
:100A3000012000E0002070BD01468888C0F3080056
:100A4000704700BFFEE7000010B5124C0320206184
:100A5000606111A0A0611349E1614FF480612162DE
:100A60000021A1626162E1620BA020660E4961660D
:100A70001021A16600212167E16661670BA1E01DDD
:100A8000FFF7A3FB0AA12046FFF79FFB2020A071E0
:100A900010BD0000E80000205465726D696E616C45
:100AA00000000000900100209005002052545400E6
:100AB000534547474552000010B501460A69CB68C7
:100AC0009A4204D88C68641EE41AA01801E0D41A73
:100AD000601E10BD2DE9FC5F06460F469246984603
:100AE000DDE90C45002F01DA784200E03846834604
:100AF0004FF0010903E09BFBFAFB09F10109D34523
:100B0000F9DAC84500D9C14634B1002F03DB05F03E
:100B10000400042800D1641E05F0020010B1B8F1F1
:100B2000000F11D005F0010070B96CB108E0641E2F
:100B30002021304600F0BAF8F068002800DA02E020
:100B40000CB1A145F3D300BFF068002836DB002FBD
:100B500005DA7F422D21304600F0A8F807E005F0C5
:100B60000400042803D12B21304600F09FF8F068E0
:100B7000002823DB05F00200022814D105F0010053
:100B800088B9B8F1000F0ED16CB108E0641E3021B5
:100B9000304600F08BF8F068002800DA02E00CB173
:100BA000A145F3D300BFF068002807DB4346524657
:100BB00039463046CDE9004500F002F8BDE8FC9F1B
:100BC0002DE9FC5F8046894615461E460C9CCDF8F3
:100BD00004900127BB4605E00198B0FBF5F00190B9
:100BE0000BF1010B0198A842F6D25E4500D9B3463D
:100BF0000D9800F00100D0B9CCB10D9800F00200C2
:100C0000022803D116B93020009001E02020009086
:100C100009E0641E4046009900F048F8D8F80C003E
:100C2000002800DA02E00CB1A345F2D300BFD8F8E7
:100C30000C00002835DB09E0012E01D9761E04E006
:100C4000B9FBF7FAAA4500D201E06F43F4E700BF11
:100C500000BFB9FBF7FA0AFB1799134810F80A10FE
:100C6000404600F023F8D8F80C00002800DA03E032
:100C7000B7FBF5F7002FECD100BF0D9800F0010095
:100C800078B174B109E0641E2021404600F00EF8EE
:100C9000D8F80C00002800DA02E00CB1A345F2D32A
:100CA00000BFBDE8FC9F0000C00E000870B5044600
:100CB0000E46A568681C6168814206D320684655C7
:100CC000681CA060E068401CE060D4E90110884224
:100CD0000DD1A26821682069FFF708FCA16888424D
:100CE00003D04FF0FF30E06001E00020A06070BD55
:100CF0002DE9F0470446894617464FF0000AE5689B
:100D000000BFD4F81080A84503D9A8EB0500461E03
:100D100004E0A5EB0800401CA1680E1AA068401B67
:100D2000B04201D9304601E0A068401B0646BE42F1
:100D300001D2304600E0384606466168481932461E
:100D40004946FFF766FAB244B144BF1B3544A06878
:100D5000A84200D10025E560002FD2D15046BDE861
:100D6000F0872DE9F047044689461546E668A068F5
:100D7000871BAF4208D9616888192A464946FFF7A0
:100D800048FA7019E06010E0B84661688819424678
:100D90004946FFF73EFAA5EB070809EB0701424673
:100DA0006068FFF736FAC4F80C80BDE8F0870146AA
:100DB00000BF704710B56FF00400FFF789FD0A48C7
:100DC00000680A49B0FBF1F009490870084600784C
:100DD00000EB4001C1EBC0104FF6FF7101EAC0000B
:100DE0000449088010BD00000000002000127A00B5
:100DF00014000020160000200146114A12884A43C0
:100E00004FF0E0235A6100229A611A46126942F0BB
:100E100001021A6100BF4FF0E022106900F00102E8
:100E20001AB100F48032002AF5D04FF0E0221269A6
:100E300022F001024FF0E0231A6100229A6170470C
:100E4000160000200024FFF7B5FFFFF71FFB1BE093
:100E500000200E4908606420FFF7CEFF01200C49F6
:100E6000C1F8B4016420FFF7C7FF00BF1F2309A228
:100E70000AA10020FFF7A0FB22460EA10020FFF7E9
:100E80009BFB00BF601CC4B2E2E70000B401224239
:100E9000000022426D61696E2E63000066696C6518
:100EA0003A25732C6C696E653A25642C4C4F473A91
:100EB00000000000636E74203D2025640A000000DD
:100EC0003031323334353637383941424344454680
:100ED000F00E00080000002020000000280100089B
:100EE000100F000820000020E00B00004401000863
:100EF00000A24A04000000000000000001020304F8
:100F000006070809000000000000000000000000C3
:040000050800018965
:00000001FF
